{
  "contractName": "HoggieToken",
  "abi": [
    {
      "constant": true,
      "inputs": [],
      "name": "totalSupply",
      "outputs": [
        {
          "name": "",
          "type": "uint256"
        }
      ],
      "payable": false,
      "stateMutability": "view",
      "type": "function",
      "signature": "0x18160ddd"
    },
    {
      "inputs": [],
      "payable": false,
      "stateMutability": "nonpayable",
      "type": "constructor",
      "signature": "constructor"
    }
  ],
  "bytecode": "0x6080604052348015600f57600080fd5b50620f42406000819055506098806100286000396000f3fe6080604052600436106039576000357c01000000000000000000000000000000000000000000000000000000009004806318160ddd14603e575b600080fd5b348015604957600080fd5b5060506066565b6040518082815260200191505060405180910390f35b6000548156fea165627a7a723058207ce19d410aa255844c517e3ea4d144595dd1082ad15e67effab7f8ad7d4392ac0029",
  "source": "pragma solidity ^0.5.1;\r\n\r\ncontract HoggieToken {\r\n\t// Constructor\r\n\t// Set the total number of tokens\r\n\t// Read the total number of tokens\r\n\tuint256 public totalSupply;\r\n\r\n\tconstructor() public {\r\n\t\ttotalSupply = 1000000;\r\n\t}\r\n}",
  "sourcePath": "C:/Users/conor/token_sale/contracts/HoggieToken.sol",
  "compiler": {
    "name": "solc",
    "version": "0.5.1+commit.c8a2cb62.Emscripten.clang"
  },
  "schemaVersion": "3.0.1",
  "updatedAt": "2019-02-03T00:59:49.911Z",
  "devdoc": {
    "methods": {}
  },
  "userdoc": {
    "methods": {}
  }
}